:020000040800F2
:10000000080500209D010008B914000841100008EF
:10001000B5140008B50A00085F1D000800000000C4
:100020000000000000000000000000004918000867
:10003000610D000800000000C5170008B5010008A8
:10004000B7010008B7010008B7010008B7010008B0
:10005000B7010008B7010008B7010008B7010008A0
:10006000B7010008B7010008B7010008B701000890
:10007000B7010008B7010008B7010008B701000880
:10008000B7010008B7010008B7010008B701000870
:10009000B7010008B7010008B7010008B701000860
:1000A000B7010008B7010008B7010008B701000850
:1000B000B7010008711A0008B7010008B70100086D
:1000C000B7010008B7010008B7010008B701000830
:1000D000B7010008791C0008B7010008B701000843
:1000E000B7010008B7010008B7010008B701000810
:1000F000B7010008B7010008B7010008B701000800
:10010000B7010008B7010008B7010008B7010008EF
:10011000B7010008B7010008B7010008B7010008DF
:10012000B7010008B7010008B7010008B7010008CF
:10013000B7010008B7010008B7010008B7010008BF
:10014000B7010008B7010008B7010008B7010008AF
:10015000B7010008B7010008B7010008B70100089F
:10016000B7010008B7010008B7010008B70100088F
:10017000B7010008B7010008B7010008B70100087F
:10018000B7010008B7010008DFF80CD000F01EFB33
:10019000004800472D270008080500200648804732
:1001A00006480047FEE7FEE7FEE7FEE7FEE7FEE75C
:1001B000FEE7FEE7FEE7FEE7611900088901000897
:1001C0002DE9F05F0546002092469B46884606468C
:1001D000814640241BE0284641464746224600F01F
:1001E00026FA53465A46C01A914110D31146184672
:1001F000224600F00DFA2D1A67EB01084F46224601
:100200000120002100F004FA17EB00094E41201EE6
:10021000A4F10104DFDC484631462A464346BDE8E6
:10022000F09FD2B201E000F8012B491EFBD27047CB
:100230000022F6E710B513460A4604461946FFF7B2
:10024000F0FF204610BD2DE9FE4F804681EA0300F5
:10025000C00F0C46009021F0004123F00045B8EBA0
:100260000200A94105D24046214690461C460B4655
:10027000024623F00040104347D0270DC7F30A0081
:10028000C3F30A510290401A019040286BDAC3F37D
:10029000130040F4801B0098924620B10023D2EB5B
:1002A000030A63EB0B0B01985946C0F1400250461C
:1002B00000F0AEF906460D4650465946019A00F048
:1002C000C6F910EB08006141002487EA115284EA64
:1002D000E7731A4340D0009A62B3019A012A4FEAA9
:1002E000075215DC001B61EB02014FF0004202EAED
:1002F0000752CDE90042001C41F5801132462B46E1
:1003000000F0FDF903B0BDE8F08F40462146F9E763
:10031000001B61EB0201001C41F5801300185B41DA
:100320002018A2F5001747EB030140EAD570B61973
:100330006D4111E06D084FEA360645EAC0754FEA97
:100340000752001B61EB0201001C41F580114908B6
:100350004FEA30000019514132462B4603B0BDE848
:10036000F04F00F0BDB90098012240000023D0EB0F
:10037000020263EBE073009821464FEAE074B8EBA9
:10038000000061EB0401E9E783F000435BE781F0E3
:10039000004158E72DE9FE4F81EA030404F00044D0
:1003A00021F0004100944FF0000B23F0004350EA8D
:1003B00001045ED052EA03045BD0C3F30A54C1F3D4
:1003C0000A552C44A4F2F3340194A0FB0254C1F367
:1003D000130141F48011C3F3130343F4801301FBB1
:1003E000024400FB034E840A970A44EA815447EA18
:1003F0008357A4FB076802958D0A05FB07854FEA22
:10040000932C04FB0C542705029D4FEA065847EA3B
:100410001637B5EB08056EEB070C870E920E47EA10
:10042000811742EA8312A7FB0201B6EB0B0164EBD2
:1004300000042B0D43EA0C335E1844EB1C50DA46E3
:100440005146E7FB0201C5F313044FEA0B3343EABD
:1004500014534FEA0432019C43EA0603A4F10C044E
:100460000294009CCDE900B400F049F903B0BDE866
:10047000F08F00200146F9E72DE9F04D81EA0304F1
:1004800004F0004B21F0004514464FF0000A23F021
:10049000004150EA050220D054EA01021DD0C5F304
:1004A0000A570246C5F31303C1F31300C1F30A56FA
:1004B00040F4801543F48013A7EB0608101BD646C2
:1004C00008F2FD3873EB050002D308F1010801E0E2
:1004D00092185B41B8F1000F03DA00200146BDE835
:1004E000F08D00204FF48011064684460EE0171B65
:1004F00073EB050705D3121B63EB050306434CEAB8
:10050000010C49084FEA300092185B4150EA01079C
:10051000EDD152EA030012D082EA040083EA050119
:10052000084305D0101BAB4106D20122002306E090
:1005300000224FF0004302E06FF0010253101AEB6B
:1005400006004CEB085110EB0A0041EB0B01BDE833
:10055000F04D00F0C5B800F0004230F000400AD085
:10056000C10D01F56071C0F3160042EA0151C208E5
:1005700040071143704700200146704730B5041E04
:1005800071F1000404DB4FF00044404264EB0101D0
:10059000141E73F1000405DB1C464FF00043524269
:1005A00063EB0403994208BF904230BD01F0004361
:1005B00030B421F0004150EA010206D00A0DA2F544
:1005C0006072C1F31301002A02DC30BC00207047C6
:1005D000440F44EAC104C100E01830BC00EBC25033
:1005E00000F047B830B50B46014600202022012418
:1005F00009E021FA02F59D4205D303FA02F5491BF1
:1006000004FA02F52844151EA2F10102F1DC30BD06
:10061000202A04DB203A00FA02F1002070479140C2
:10062000C2F1200320FA03F3194390407047202AB7
:1006300004DB203A21FA02F00021704721FA02F38C
:10064000D040C2F120029140084319467047202A49
:1006500006DBCB17203A41FA02F043EAE07306E0EA
:1006600041FA02F3D040C2F12002914008431946FA
:1006700070470029A8BF7047401C490008BF20F000
:100680000100704710B4B0FA80FC00FA0CF050EA98
:10069000010404BF10BC704749B1CCF1200421FA19
:1006A00004F411FA0CF118BF012121430843A3EB14
:1006B0000C01CB1D4FEA00614FEA102042BF002021
:1006C00010BC704700EBC35010440029A4BF10BCFD
:1006D0007047401C490008BF20F0010010BC704763
:1006E00010B5141E73F1000408DA401C41F100013A
:1006F00092185B411A4301D120F0010010BD2DE991
:10070000F04D92469B4611B1B1FA81F202E0B0FA87
:1007100080F220329046FFF77BFF04460F4640EA06
:100720000A0041EA0B0153465A46084313D01146CA
:1007300053EA010019D0C8F140025046FFF777FF95
:1007400005460E46504659464246FFF761FF0843AC
:1007500005D0012004E020463946BDE8F08D002098
:10076000054346EAE0762C4337430A986305E40ADA
:10077000A0EB08000022FD0A44EA47540A3002D5E3
:1007800000200146E9E7010510196941DDE9084546
:1007900000196941BDE8F04DA2E7C1F30A52C1F367
:1007A000130140F2FF3341F480119A4202DA002033
:1007B0000146704740F233439A42A2F2334202DCD0
:1007C0005242FFF734BFFFF723BF0000064C074D2E
:1007D00006E0E06840F0010394E807009847103411
:1007E000AC42F6D3FFF7D4FC0453000824530008AE
:1007F00021B1826842F00102826003E0826822F047
:1008000001028260704700000021084A1168084A0E
:100810001140D0E900231A4383681A43C3681A437E
:100820001143044AC2F80413704700000423014036
:10083000E030FCFF0020014021B1826842F4807268
:10084000826003E0826822F480728260704721B186
:10085000826842F40072826003E0826822F40072CF
:100860008260704730B50246002000235068104C6B
:1008700020400D790C6844EA0524204350609068BC
:100880000C4C2040D1E903542C438D682C434D7906
:1008900044EA450420439060D06A20F470000C7D47
:1008A000641EE4B2234340EA0350D06230BD00002E
:1008B000FFFEFFFCFDF7FFC0F0B504460D4600202B
:1008C0000021092D11DDE068A5F10A0606EB4607B7
:1008D000072606FA07F18843A5F10A0606EB460645
:1008E00003FA06F10843E0600CE0206905EB4507D8
:1008F000072606FA07F1884305EB450603FA06F1D9
:1009000008432061072A0FDA606B561E06EB860744
:100910001F2606FA07F18843561E06EB860605FADF
:1009200006F10843606322E00D2A0FDA206BD61F20
:1009300006EB86071F2606FA07F18843D61F06EB4B
:10094000860605FA06F10843206310E0E06AA2F18A
:100950000D0606EB86071F2606FA07F18843A2F16B
:100960000D0606EB860605FA06F10843E062F0BDC7
:10097000816841F0804181607047000038B10849CA
:10098000096841F40001074AC2F8041306E004496B
:10099000096821F40001034AC2F8041370470000FB
:1009A000042301400020014000B59BB001213C48D8
:1009B00000F00AFF0121080200F036FF00200C9031
:1009C00038480D9038480E9000200F90022010906B
:1009D000002011904FF4806012904000139080002E
:1009E000149040111590400216900020179001209D
:1009F0001890002019901A900CA92C4800F084F946
:100A000001212A4800F058F820200A9003208DF890
:100A10002C0000208DF82F000AA9254800F02FFA9D
:100A20000120FFF7ABFF00200690099008904FF4DB
:100A30008030079006A8FFF7E7FE00200090012015
:100A40008DF804008DF805000020039002900490BA
:100A500002208DF81400694612484C38FFF702FF57
:100A60000723012205210F484C38FFF725FF0723F4
:100A7000022210210B484C38FFF71EFF01210948C4
:100A80004C38FFF7E4FE012106484C38FFF7D4FE4E
:100A9000012104484C38FFF7ABFE1BB000BD00003D
:100AA000010040004C2001400E0000201064024074
:100AB0000000024000BFFEE721B1026842F00102DF
:100AC000026003E0026822F0010202607047000049
:100AD00000B58FB02E4800F061F800BF2C4800F040
:100AE00009F90028FAD12A48303000F057F800BF41
:100AF0002748303000F0FEF80028F9D100904FF080
:100B0000C840019023480290802003904BF680302B
:100B100004904FF400700590002006904FF40060A0
:100B2000079080000890002009900A9004200B9004
:100B300003200C9000200D900E906946144800F0A0
:100B4000E3F80020009014480190124802908020A1
:100B500003904BF6803004904FF400700590002015
:100B600006904FF4006007908000089000200990E4
:100B70000A9004200B9003200C9000200D900E9002
:100B800069460348303000F0BFF80FB000BD0000E8
:100B9000286402400200006800770164016821F0C7
:100BA000010101600021016041608160C16001615B
:100BB000212141614A49884204D13D21484A103AE5
:100BC00091608CE046491831884205D14FF4746138
:100BD000434A103A916082E041493031884205D160
:100BE0004FF474113E4A103A916078E03C49483124
:100BF000884205D14FF07461394A103A91606EE035
:100C000037496031884204D13649354A103AD160BB
:100C100065E033497831884204D13349304A103A8B
:100C2000D1605CE02E499031884204D12F492C4A92
:100C3000103AD16053E02A49A831884205D14FF0DB
:100C40003D51274A103AD16049E02949884204D1F0
:100C50003D21274A083A116041E025491831884270
:100C600005D14FF47461224A083A116037E02049F7
:100C70003031884205D14FF474111D4A083A116091
:100C80002DE01B494831884205D14FF07461184A64
:100C9000083A116023E016496031884204D11149B5
:100CA000134A121F11601AE011497831884204D1A9
:100CB0000D490F4A121F116011E00D499031884211
:100CC00004D10A490A4A121F116008E00849A831F4
:100CD000884204D14FF03D51054A121F1160704700
:100CE000106002403D000020400F002000003D2029
:100CF00010640240014600200A6802F001020AB1B5
:100D0000012000E00020704710B500220268134B5C
:100D10001A40CC680B6823434C6923438C692343F6
:100D2000CC6923430C6A23434C6A23438C6A2343D4
:100D30004C6B23438C6B23431A430260426922F0BD
:100D40000702D1E90B3423431A4342610B69436024
:100D50004B6883608B68C36010BD00003F801CF04F
:100D60007047000051B18200A2F1C042126842F007
:100D700001038200A2F1C042136009E08200A2F1E7
:100D8000C0421268034B1A408300A3F1C0431A60AB
:100D900070470000FEFF0F00D0E901121143C26846
:100DA0001143026911434269114382691143C269C7
:100DB0001143026A1143426A1143826A1143C26AB3
:100DC0001143026B114302689200A2F1C04211600C
:100DD000816808290BD101688900A1F1C041096827
:100DE00041F0400201688900A1F1C0410A60416BF5
:100DF0000968426B526841EA0211426B926841EA0B
:100E00000221426B928941EA0241426B128A41EA15
:100E10000251426B127D41EA0261426B92691143B9
:100E20000268521C9200A2F1C0421160C16AB1F581
:100E3000804F1BD1816B0968826B526841EA0211B5
:100E4000826B926841EA0221826B128A41EA025166
:100E5000826B127D41EA0261826B926911430268E2
:100E60009200A2F1C042C2F8041107E06FF0704294
:100E700001688900A1F1C041C1F804217047F0B5B3
:100E80000A4600210023002400BF3DE0012505FAA9
:100E900001F3156805EA03049C4234D105684F004C
:100EA0000326BE40B543056015794E00B54006687F
:100EB000354305601579012D02D01579022D16D123
:100EC00085684F000326BE40B543856055794E00C6
:100ED000B540866835438560456801268E40B54338
:100EE0004560456896798E40B6B235434560C56821
:100EF0004F000326BE40B543C560D5794E00B540CE
:100F0000C6683543C560491C1029BFD3F0BDF0B594
:100F1000002300244D07ED0E02FA05F3CE1000F178
:100F2000200555F826504E07F70E0F26BE40B54354
:100F3000CF1000F1200646F82750CE1000F1200512
:100F400055F8265045EA0304CE1000F1200545F877
:100F50002640F0BD10B5044601210548FFF76CFCA2
:100F60000348FFF705FD034830F8140010BD0000EA
:100F7000002001400E0000202DE9F04107460C46FC
:100F80000025002608E03846FFF7E4FF0544052069
:100F900001F08AFB701CC6B2A642F4DBB5FBF4F08C
:100FA00080B2BDE8F081000010B52DED088B0A215C
:100FB0000120FFF7E1FF08EE100AB8EE480A10EE34
:100FC000100AFFF7C8FA41EC1A0B9FED150B53EC12
:100FD000102BFFF7DFF941EC190B9FED130B53ECCE
:100FE000102B51EC190BFFF7CFF941EC1B0B9FEDC8
:100FF000100B53EC102BFFF73FFA41EC1A0B9FED4F
:101000000E0B53EC102BFFF71EF941EC190B51ECB2
:10101000190BFFF7CBFA00EE100ABDEC088B10BDE0
:101020006666666666664A3F52B81E85EB51E83FC3
:101030007B14AE47E17A643F0000000000003940B5
:1010400000BFFEE710B52C204FF0D0410880FFF71D
:101050003FFD01210A48FFF72FFD00BF0848FFF7B9
:1010600049FE0028FAD1012105483030FFF724FD60
:1010700000BF03483030FFF73DFE0028F9D110BD16
:101080002864024070B50546002400BF04E005480E
:10109000006820F81450641C03488442F7D3FFF71B
:1010A000D1FF70BD3C000020007701001CB501217C
:1010B000782000F089FB4CF23370009002208DF80C
:1010C00004008DF8050000208DF806008DF807005B
:1010D00069463E48FFF7D3FE0C2200213B48FFF74C
:1010E00016FF0C2201213948FFF711FF0C220421C1
:1010F0003648FFF70CFF0C2205213448FFF707FFA5
:101100000C2208213148FFF702FF0C2209212F4849
:10111000FFF7FDFE0C220A212C48FFF7F8FE0C22F7
:101120000E212A48FFF7F3FE0C220F212748FFF774
:10113000EEFE4FF68070009069462548FFF79FFE4F
:101140000C2207212248FFF7E2FE0C22082120484A
:10115000FFF7DDFE0C2209211D48FFF7D8FE0C2207
:101160000A211B48FFF7D3FE0C220B211848FFF77A
:10117000CEFE0C2211461648FFF7C9FE0C220D21A7
:101180001348FFF7C4FE0C220E211148FFF7BFFEE3
:101190000C220F210E48FFF7BAFE0120009069468D
:1011A0000C48FFF76CFE0C2200210A48FFF7AFFE47
:1011B0004FF48060009069460748FFF760FE0C22FC
:1011C0000A210548FFF7A3FE1CBD0000000C0240E9
:1011D00000100240001402400018024070B505469D
:1011E0000E461446A4F12000C4B207480068016806
:1011F00005480068C088604301EB4002294630463C
:1012000000F026F870BD00003400002070B50646DE
:101210000C4600250AE0227829463046FFF7DEFF1B
:101220000A4800688088284485B2641C207808B188
:10123000012000E00020F02D01DA012100E0002172
:1012400008400028E7D1FFF7FDFE70BD3400002004
:10125000F0B503460C460020002100BF3FE000210E
:1012600037E0224D2D68AD880C2695FBF6F5EE0093
:101270008025B5400D4132F81060354025B91B4D31
:101280002D68AD880C2D0ADD32F8105001268E40F5
:1012900035408DB9154D2D68AD880C2D0CDD144DE4
:1012A0002D885E1827184FF0F00C0CFB0766114FC5
:1012B0003F6827F816500BE00F4D2D885E18271851
:1012C0004FF0F00C0CFB07660A4F3F6827F81650EA
:1012D000491C064D2D68AD888D42C2D8401C034D77
:1012E0002D68ED888542BAD8F0BD0000340000209A
:1012F0003A0000203C0000203800002000B597B0E4
:101300000121084600F070FA0120019000200290AF
:101310000920039000200490059006900790042077
:101320000890002009900A9010200B9000200C904B
:101330000D900E900F9010904FF48050119000205F
:1013400012901390149001A81590169008A8FFF71A
:1013500023FD01210420FFF705FD17B000BD0000AB
:1013600001480068704700003400002010B50121DA
:10137000880500F029FA4FF0C840344908604FF45E
:10138000000132480068FEF753FFFFF78FFEFFF7BA
:10139000B5FFFFF79DFB0A2001F056F901204FF041
:1013A000D04108800A2001F04FF9D020C105088003
:1013B000072048800120488008204880D1200880EC
:1013C000002048807120488019204880D220088061
:1013D0000120488044204880112008800A2001F024
:1013E00033F93A204FF0D04108805520488036200C
:1013F0000880482048802A200880002048804880B3
:101400004880EF2048802B200880002048804880BA
:10141000012048808F204880B0200880002048802C
:10142000488048804880488048804880BC200880A8
:10143000FF204880488040204880012048802920A3
:101440000880034800F014F810BD00003C000020A4
:101450001400002003B5BDF8000003490880BDF862
:101460000400024908800CBD380000203A0000202A
:101470000149086070470000340000201CB50121BC
:10148000202000F0A1F94FF4F060009001208DF8C9
:10149000040000208DF8060002208DF805000120D0
:1014A0008DF8070069460248FFF7E9FC1CBD000003
:1014B0000014024000BFFEE77047000070B5002135
:1014C00000230F22C4781CB3174C246804F4E06492
:1014D000C4F5E064C4F30721C1F10404E3B20A4196
:1014E00044789C40E1B28478144021430C07210EDB
:1014F0000E4C05786155047804F01F050124AC40BA
:1015000005786D11AD0005F1E025C5F8004109E051
:10151000047804F01F050124AC40054D06787611CF
:1015200045F8264070BD00000CED00E000E400E04E
:1015300080E100E000B599B00121782000F044F985
:101540000121084600F050F90C2200219948FFF7CC
:10155000DEFC0C2201219748FFF7D9FC0C22042164
:101560009448FFF7D4FC0C2205219248FFF7CFFCEA
:101570000C2208218F48FFF7CAFC0C2209218D4854
:10158000FFF7C5FC0C220A218A48FFF7C0FC0C2299
:101590000B218848FFF7BBFC0C2211468548FFF75A
:1015A000B6FC0C220D218348FFF7B1FC0C220E2162
:1015B0008048FFF7ACFC0C220F217E48FFF7A7FC08
:1015C0004FF63370019002208DF8080003208DF84B
:1015D000090000208DF80A008DF80B0001A975485C
:1015E000FFF74DFC0C2200217348FFF790FC0C2202
:1015F00001217148FFF78BFC0C2202216E48FFF796
:1016000086FC0C2203216C48FFF781FC0C2204218C
:101610006948FFF77CFC0C2205216748FFF777FC3F
:101620000C2206216448FFF772FC0C220721624855
:10163000FFF76DFC0C2208215F48FFF768FC0C22C5
:1016400009215D48FFF763FC0C220A215A48FFF785
:101650005EFC0C220B215848FFF759FC0C22114666
:101660005548FFF754FC0C220D215348FFF74FFC5F
:101670000C220E215048FFF74AFC0C220F214E4845
:10168000FFF745FC4FF6FF70019001A94A48FFF7AC
:10169000F6FB0C2200214948FFF739FC0C220121FE
:1016A0004648FFF734FC0C2202214448FFF72FFC88
:1016B0000C2203214148FFF72AFC0C2204213F4859
:1016C000FFF725FC0C2205213C48FFF720FC0C22EB
:1016D00011463A48FFF71BFC0C220D213748FFF753
:1016E00016FC0C220E213548FFF711FC0C220F21AD
:1016F0003248FFF70CFC4FF23F00019001A92F4840
:10170000FFF7BDFB0C2200212D48FFF700FC0C2247
:1017100001212B48FFF7FBFB0C2202212848FFF791
:10172000F6FB0C2203212648FFF7F1FB0C220421D3
:101730002348FFF7ECFB0C2205212148FFF7E7FBCC
:101740000C2209211E48FFF7E2FB40F23F200190E6
:1017500001A91B48FFF793FB02200390002004908F
:101760000B2005900120069000200790089009901A
:1017700002200A9000200B9004200C9010200D9065
:1017800000200E900F901090119012904FF4805006
:101790001390002014901590169003A8179018909D
:1017A0000AA8FFF7F9FA01210220FFF7DBFA19B0C6
:1017B00000BD0000000C0240001002400014024076
:1017C000001802407047000029B1064A126802431F
:1017D000044B1A6004E0034A12688243014B1A600A
:1017E000704700003038024029B1064A12680243AF
:1017F000044B1A6004E0034A12688243014B1A60EA
:10180000704700003838024029B1064A1268024386
:10181000044B1A6004E0034A12688243014B1A60C9
:10182000704700004038024029B1064A126802435E
:10183000044B1A6004E0034A12688243014B1A60A9
:101840007047000044380240704700000CB500208B
:10185000019000903448006840F4803032490860BC
:1018600000BF3148006800F4003000900198401C2F
:101870000190009818B90198B0F5A04FF1D12A480D
:10188000006800F4003010B10120009001E0002059
:1018900000900098012846D123484030006840F06D
:1018A00080502149403108602048006840F44040A1
:1018B0001E4908601C48083000681B490831086050
:1018C0000846006840F4004008600846006840F49C
:1018D000A05008601648091F0860081F006840F003
:1018E0008070091F086000BF0F48006800F000709A
:1018F0000028F9D040F205700E4908600A48083007
:10190000006820F0030008490831086008460068B4
:1019100040F00200086000BF03480830006800F093
:101920000C000828F8D10CBD0038024000700040BF
:1019300019544007003C0240042808D14FF0E02130
:10194000096941F004014FF0E022116107E04FF016
:10195000E021096921F004014FF0E0221161704794
:1019600010B51548006840F470001349086013482A
:10197000006840F001001149086000200F4908315B
:1019800008600E4800680E4908400C4908600D4880
:10199000091D0860081F006820F48020091F0860E6
:1019A000002006490C310860FFF750FF4FF000603F
:1019B00001498039086010BD88ED00E00038024020
:1019C000FFFFF6FE1030002430B58BB004460D4604
:1019D00001210802FFF718FF01212020FFF7F4FE84
:1019E0004FF40070099002208DF8280003208DF834
:1019F000290000208DF82A0001208DF82B0009A96C
:101A00001948FFF73CFA092211461748FFF77FFAF9
:101A1000A8B2ADF818000020ADF81A000794ADF890
:101A2000200006A9114800F0E5F86020ADF8040098
:101A30000120ADF806000220ADF810000120ADF83D
:101A4000060001A9094800F08DF80821074800F0B8
:101A5000C7F80121054800F04FF80121034800F0C4
:101A60005AF80BB030BD00000014024000200040C6
:101A700010B50121074800F05AF8012804D10648A2
:101A80000088401C044908800121024800F040F809
:101A900010BD000000040040000000207FB5054696
:101AA0000C4601210220FFF7AFFE0295ADF804407D
:101AB0000020ADF80600ADF80C0001A90D4800F0BB
:101AC00099F8012211460B4800F042F81D208DF8CC
:101AD000000001208DF8010003208DF80200012094
:101AE0008DF803006846FFF7E9FC0121014800F08A
:101AF00012F87FBD0004004021B1028842F080024C
:101B0000028004E002884FF67F731A40028070471B
:101B1000CA430282704721B1028842F0010202806A
:101B200004E002884FF6FE731A400280704730B519
:101B30000246002000230024158A05EA0103958946
:101B400005EA010413B10CB1012000E0002030BD12
:101B50001AB183890B43838102E083898B4383819C
:101B60007047000070B5002400220023058C4FF65A
:101B7000FE7635400584028C8388048B4FF68F7582
:101B80002C40B51E2C400D882C43751E2A408D8993
:101B90002A434D882A43104DA84202D00F4DA84237
:101BA00013D14FF6F7752A40CD892A434FF6FB75BE
:101BB0002A408D882A434FF6FF652B404FF6FF558C
:101BC0002B400D8A2B434D8A2B43838004838D68E1
:101BD0004563028470BD0000000001400004014024
:101BE0000A460021018B4FF6F77319401143018318
:101BF0007047000000220288184B98420ED0184B04
:101C000098420BD0B0F1804F08D0164B984205D0C7
:101C1000154B984202D0154B984204D14FF68F7362
:101C20001A404B881A43124B984207D0114B9842E6
:101C300004D04FF6FF431A400B891A4302804B68C9
:101C4000C3620B880385054B984202D0044B98422F
:101C500001D18B7A03860123838270470000014003
:101C6000000401400004004000080040000C004057
:101C7000001000400014004010B540F225511D48EE
:101C800000F03EF810B31B4800F064F8C4B21A48E4
:101C9000008800F40040C8B91748008800F480406C
:101CA00060B10A2C03D000201349088020E01248BC
:101CB000008840F400401049088019E00D2C06D13E
:101CC0000D48008840F480400B49088010E00A4825
:101CD0000088C0F30D0009490C5407480088401CD7
:101CE0000549088008460088C72801DD00200880D3
:101CF00010BD00000010014008000020400000203E
:101D000070B50246002400230025002040F66A1624
:101D1000B14200D100BFC1F3421501F01F030126FB
:101D200006FA03F3012D02D19689334006E0022D15
:101D300002D1168A334001E0968A33400C12012604
:101D400006FA04F41688344013B10CB1012000E007
:101D5000002070BD01468888C0F30800704700BFAE
:101D6000FEE700000FB4084B10B504A902AA0398BF
:101D700000F0CEF8044602A9002000F060FC2046E6
:101D800010BC5DF814FB00003F26000802E008C804
:101D9000121F08C1002AFAD170477047002001E0E5
:101DA00001C1121F002AFBD1704700002DE9FF5F1F
:101DB000DDE90220010DDDF838B0024318D044F609
:101DC0001050A1F2FF3141430D140F98012820D08B
:101DD000A5EB0B00401C5FEA000A4FF00004474EE1
:101DE000DFF81C91A046504616D5CAF1000728E03E
:101DF0000F98012443A2012808D0002100980F9BCE
:101E0000C0E90021C0E90243BDE8FF9F6FEA0B0172
:101E1000F4E7CBF10000DEE7074612E0F80707D051
:101E20002246334640464946FEF7B4FA8046894684
:101E30002246334610461946FEF7ACFA04460E46D3
:101E40007F10002FEAD1DDE90201BAF1000F42460E
:101E50004B4602DAFEF79EFA01E0FEF70DFB044660
:101E60000E460022284BFEF789FB03D84FF0FF30C7
:101E7000014607E00022254B20463146FEF7E3F9F4
:101E8000FEF78BFC102409E0002C0ADB0A22002359
:101E9000FEF796F9019B30321A55641E50EA010292
:101EA000F2D1641C019AC4F1110314440F9A012A5F
:101EB00003D0012208430DD10AE0084304D00020DA
:101EC0004FF0110B0F9080E7A3EB0B056D1E0DE09B
:101ED0005B4504DD4FF0000205F1010504E003DA83
:101EE0004FF00002A5F10105002AECD000980F99EF
:101EF000C0E90231C0E9004586E700000000244047
:101F00000000F03F300000000000F0430000E03F20
:101F10002DE9FF4F95B09B468946064600250FE206
:101F2000252877D100242746F84A0121059400E0AE
:101F3000044316F8013F203B01FA03F01042F7D1A9
:101F400030782A2811D06FF02F033078A0F13002BA
:101F5000092A16D8059A44F0020402EB820203EB28
:101F600042021044761C0590EFE759F8042B0592C5
:101F7000002A03DA504244F40054059044F002046D
:101F8000761C30782E2816D116F8010F44F0040480
:101F90002A280DD06FF02F023078A0F13003092BE2
:101FA00009D807EB870302EB4303C718761CF3E756
:101FB00059F8047B761C30786C280FD006DC4C284E
:101FC00017D068280DD06A2814D104E0742810D0E6
:101FD0007A280FD10DE044F400140AE044F4801490
:101FE00001E044F440147278824202D104F5801476
:101FF000761C761C307866280BD013DC582877D0F6
:1020000009DC002875D04528F6D04628F4D04728AA
:102010001AD19DE118E0632835D0642879D065286D
:1020200012D195E1702873D008DC6728F1D06928B7
:102030006FD06E280DD06F2806D1B5E073282CD054
:10204000752875D0782874D05A46179990476D1C1A
:1020500075E1C4F30250022809D003280DD0D9F845
:10206000001004280DD00D6009F1040967E1D9F8CA
:102070000010EA17C1E90052F6E7D9F800100D8008
:10208000F2E70D70F0E719F8041B8DF8001000203E
:102090008DF80100EA46012003E059F804AB4FF047
:1020A000FF3061074FF0000102D40DE008F101019B
:1020B0008846B9420FDA8045F8DB1AF80810002983
:1020C000F4D108E008F1010188468142FADB1AF8F0
:1020D00008100029F6D105985B46A0EB08072146B9
:1020E0003846179A00F094FA284400EB080507E0F8
:1020F0004DE029E10DE01AF8010B5A461799904777
:10210000B8F10108F7D25B4621463846179A13E129
:1021100042E00A220092C4F302524FF0000A022A5F
:1021200008D059F804CB032A4FEAEC710AD00DE02D
:1021300029E02AE009F1070121F00702F2E802C1D3
:10214000914609E00FFA8CFC4FEAEC71042A03D1A6
:102150004FFA8CFC4FEAEC71002907DA0A4600219D
:10216000DCF1000C61EB02012D2202E0220504D516
:102170002B228DF80420012203E0E20701D0202267
:10218000F7E7904659E00A2102E010220DE0102105
:102190004FF0000A00910BE010224FF0000A44F0CB
:1021A00004040827009203E008224FF0000A00927E
:1021B000C4F30252022A05D059F804CB0021032AA5
:1021C00008D009E009F1070121F00702F2E802C195
:1021D000914605E01FFA8CFC042A01D10CF0FF0C9B
:1021E0004FF00008220728D5702806D0009B83F006
:1021F000100353EA0A0305D00EE040228DF80420B4
:10220000012208E05CEA010206D030228DF80420A9
:102210008DF8050002229046009B83F0080353EAE4
:102220000A030AD15CEA010201D1620705D5302216
:102230008DF804204FF001087F1E582804D034A0E8
:1022400003900EA802900DE036A0F9E753466046D1
:10225000009AFDF7B5FF84460398825C0298401E01
:10226000029002705CEA0100F0D1029806A9081AF7
:1022700000F1200A600702D524F4803400E0012731
:10228000574502DDA7EB0A0000E0002000EB0A0141
:10229000009005984144401A0590E00306D45B463F
:1022A0002146179A059800F0B3F90544002706E087
:1022B00001A85A46C05D179990476D1C7F1C474581
:1022C000F6DBE0030CD55B462146179A059800F033
:1022D0009FF9054404E030205A46179990476D1C39
:1022E0000099481E00900029F5DC08E00298029948
:1022F0005A460078491C0291179990476D1CBAF113
:102300000001AAF1010AF1DC65E1000009280100E1
:10231000303132333435363738396162636465665B
:10232000000000003031323334353637383941421D
:10233000434445460000000000F058F90544761C6F
:10234000307800287FF4ECAD19B02846BDE8F08F56
:10235000620700D4062709F1070222F0070CFCE807
:102360000223E14603F000485FEA080C02D00FF2B6
:10237000702C0DE05FEA045C02D50FF2682C07E0D8
:102380005FEAC47C02D00FF2602C01E0AFF2700C67
:102390004FF0FF3823F00043CDF850C065280CD033
:1023A00006DC452809D046281DD047283DD13DE010
:1023B000662818D067287ED138E00021112F01DB74
:1023C000112000E0781CCDE9000106A90EA8FFF756
:1023D000EDFCDDE90F010E9A03910021009207F157
:1023E000010A04914DE04FF000400097CDE9011043
:1023F00006A90EA8FFF7DAFCDDE90F0203920E9B97
:1024000011990022DDF80CA00093049211B9791CF7
:1024100000EB010AB7EB0A0004D4C0F1FF3007F16A
:10242000010A0490AAEB0700019044E0012F00DAB2
:1024300001270021112F01DD112000E03846CDE9F0
:10244000000106A90EA8FFF7B1FCDDE90F010E9A05
:102450000391002104910092BA4621070CD40399FC
:10246000514500DA8A46BAF1010F05DD009AAAF15A
:102470000101515C302908D0B84202DA10F1040F92
:1024800006DA0121CDE9011015E0AAF10101E9E721
:10249000002805DC049901440491AAEB000102E044
:1024A000411C514500DD8A460499401A401C0190A8
:1024B0004FF000400290200704D40198504501DB02
:1024C000CDF8048000208DF84F0002980DF14F07E1
:1024D000B0F1004F25D02B200E9002984FF002084B
:1024E00000280CDA404202902D200E9007E00A21CD
:1024F0000298FEF777F83031029007F8011DB8F125
:102500000001A8F10108F2DC02980028EFD1791E41
:102510000E980870307800F0200040F0450007F871
:10252000020D12A8C01B00F107081498007800B132
:10253000012000EB0A01019801EBE071059841448C
:10254000401A401E0590E00306D45B462146179AC8
:10255000059800F05DF805441498007818B15A46C3
:10256000179990476D1CE00324D55B462146179AC6
:10257000059800F04DF805441CE00498002807DB9E
:10258000DDE90301884203DD0098405C179901E012
:10259000179930205A469047049805F10105401CD0
:1025A00004900198401E019004D12E205A4617999C
:1025B00090476D1CBAF10001AAF1010ADDDC05E0CB
:1025C00017F8010B5A46179990476D1CB8F1000196
:1025D000A8F10108F4DC5B462146179A0598ABE6A2
:1025E0002D0000002B000000200000002DE9F0412C
:1025F000044600251E461746880404D405E03946E3
:102600002020B0476D1C641EF9D52846BDE8F08136
:102610002DE9F041044600251E469046C80301D529
:10262000302700E02027880404D505E041463846DD
:10263000B0476D1C641EF9D52846BDE8F0810A68D4
:10264000531C0B601070704701B581B000200090E2
:10265000054901984843009002E00098401E009010
:1026600000980028F9D10CBDA086010010B50446E1
:102670006FF00400FFF760F9E11704EB5171C1F34B
:10268000C701074A11701046007800EB4001C1EB0A
:10269000C0104FF6FF7101EAC0000249088010BD6A
:1026A0000A0000200C00002070B504464FF40770AB
:1026B00094FBF0F0C6B24FF4077094FBF0F100FB0E
:1026C000114085B205E04FF4077000F009F8701E64
:1026D000C6B2002EF7D115B1284600F001F870BD42
:1026E0000146114A12884A434FF0E0235A61002202
:1026F0009A611A46126942F001021A6100BF4FF056
:10270000E022106900F001021AB100F48032002AC0
:10271000F5D04FF0E022126922F001024FF0E023E1
:102720001A6100229A6170470C0000202DED068B83
:102730008EB042F2CF0142F20F70FFF7AFF9532192
:1027400040F2F310FFF740F9FEF7F4FE0020FEF729
:102750000DFE4FF6FF70FEF795FC4FF6FF711F2040
:10276000FEF778FE56A101A8FFF7FCFAFEF7F8FD88
:10277000002601A93046FEF749FD55A101A8FFF743
:10278000F1FAFEF7EDFDC68801A93046FEF73EFDE1
:1027900053A101A8FFF7E6FAFEF7E2FDC088400466
:1027A000060C01A93046FEF731FDFEF767FEFEF785
:1027B000FBF8A820FFF75AFF01204D49086064206C
:1027C000FFF772FF00204B49C1F89C026420FFF71D
:1027D0006BFF0120464908606420FFF765FF002079
:1027E0004449C1F89C026420FFF75EFF67E01421B2
:1027F0000020FEF7C1FB05462A463FA101A8FFF7CE
:10280000B1FAFEF7ADFDC08800EB800086B201A9E9
:102810003046FEF7FBFC00EE105AB8EE400A10EE10
:10282000100AFDF798FE9FED380B53EC102BFDF7C7
:10283000B1FDFDF7BBFE04462046FDF78CFE41ECE2
:10284000190B53EC192B32A101A8FFF78BFAFEF7F5
:1028500087FDC088C004060C01A93046FEF7D6FCEF
:1028600014210120FEF788FB05462A462AA101A86B
:10287000FFF778FAFEF774FDC08800EB40004004D3
:10288000060C01A93046FEF7C1FCFEF78DFBB0EE49
:10289000408A18EE100AFDF75EFE41EC190B53EC6E
:1028A000192B21A101A8FFF75DFAFEF759FDC08899
:1028B00000EBC00086B201A93046FEF7A7FC96E700
:1028C000202053544D33324634303778782020005E
:1028D0004465766963655F5F72756E6E696E6700E9
:1028E000202053544D333246342D4556422020008B
:1028F0009C824242008042424144435F4356303A08
:1029000020256420000000006666666666664A3F11
:10291000566F743A256620004144435F4356313A6E
:10292000202564200000000054656D703A25664340
:102930002000000000000000000000000000000077
:102940000000000000000000000000000000000087
:102950000000000000000000000000000000000077
:1029600000000000000080018001800180018001E2
:10297000800180018001800180018001800180014F
:102980000000000080018001000000000000000045
:102990000000000000000000CC00CC00CC00CC0007
:1029A000CC00CC000000000000000000000000008F
:1029B0000000000000000000000000000000000017
:1029C0000000000000000000000000000000000007
:1029D000600C600C600C30063006FE1FFE1F3006D7
:1029E00038071803FE1FFE1F180318038C018C0103
:1029F0008C01000000008000E003F80F9C0E8C1C8E
:102A00008C188C009800F801E007800E801C8C1850
:102A10008C189C18B80CF00FE003800080000000B8
:102A2000000000000000000000000E181B0C110C3C
:102A300011061106110311039B018E01C038C06CF1
:102A400060446044304430441844186C0C38000032
:102A5000000000000000E001F00338071806180627
:102A60003003F001F000F8009C310E33061E061C06
:102A7000061C063FFC73F02100000000000000006F
:102A800000000000000000000C000C000C000C0016
:102A90000C000C000000000000000000000000001E
:102AA0000000000000000000000000000000000026
:102AB000000000000000000200038001C000C00010
:102AC0006000600030003000300030003000300026
:102AD0003000300060006000C000C00080010003D2
:102AE00000020000000020006000C00080018001A2
:102AF00000030003000600060006000600060006AC
:102B0000000600060003000380018001C000600091
:102B10002000000000000000000000000000000095
:102B2000C000C000D806F807E001300338070000F5
:102B30000000000000000000000000000000000095
:102B40000000000000000000000000000000000085
:102B500080018001800180018001FC3FFC3F8001F9
:102B60008001800180018001000000000000000061
:102B70000000000000000000000000000000000055
:102B80000000000000000000000000000000000045
:102B900000000000000080018001000100018000B1
:102BA0000000000000000000000000000000000025
:102BB000000000000000000000000000E007E00747
:102BC0000000000000000000000000000000000005
:102BD00000000000000000000000000000000000F5
:102BE00000000000000000000000000000000000E5
:102BF000000000000000C000C00000000000000055
:102C0000000000000000000C000C0006000600069A
:102C10000003000300038003800180018001C000E5
:102C2000C000C00060006000000000000000000064
:102C3000000000000000E003F007380E180C0C182C
:102C40000C180C180C180C180C180C180C180C1864
:102C5000180C380EF007E003000000000000000030
:102C600000000000000000018001C001F001980197
:102C70008801800180018001800180018001800144
:102C80008001800180018001000000000000000040
:102C9000000000000000E003F80F180C0C180C18DE
:102CA00000180018000C000600038001C00060003E
:102CB00030001800FC1FFC1F000000000000000096
:102CC000000000000000E001F807180E0C0C0C0CCE
:102CD000000C0006C003C007000C001800180C18F8
:102CE0000C18180CF807E0030000000000000000BA
:102CF000000000000000000C000E000F000F800D0F
:102D0000C00C600C600C300C180C0C0CFC3FFC3F31
:102D1000000C000C000C000C000000000000000083
:102D2000000000000000F80FF80F180018000C0059
:102D3000EC03FC071C0E001C0018001800180C18EF
:102D40001C0C180EF807E003000000000000000053
:102D5000000000000000C007F00F381C1818180011
:102D60000C00CC03EC0F3C0E1C1C0C180C180C189F
:102D7000181C380EF007E0030000000000000000FF
:102D8000000000000000FC1FFC1F000C00060006F5
:102D9000000380038001C001C000E000600060000B
:102DA0007000300030003000000000000000000023
:102DB000000000000000E003F007380E180C180CAB
:102DC000180C3806F007F007180C0C180C180C1823
:102DD0000C18380CF80FE0030000000000000000A1
:102DE000000000000000E003F007380E1C0C0C1877
:102DF0000C180C181C1C381EF81BE0190018000CCD
:102E0000000C1C0EF807F00100000000000000009C
:102E100000000000000000000000000000000000B2
:102E200080018001000000000000000000000000A0
:102E30000000000080018001000000000000000090
:102E40000000000000000000000000000000000082
:102E50008001800100000000000000000000000070
:102E600000000000800180010001000180000000DE
:102E70000000000000000000000000000000000052
:102E8000000000000010001C800FE003F800180094
:102E9000F800E003800F001C00100000000000009C
:102EA0000000000000000000000000000000000022
:102EB00000000000F81F000000000000F81F0000E4
:102EC0000000000000000000000000000000000002
:102ED00000000000000000000000000000000000F2
:102EE0000000000008003800F001C007001F0018B3
:102EF000001FC007F00138000800000000000000BB
:102F0000000000000000E003F80F180C0C180C186B
:102F10000018000C000600038001C000C000C000C3
:102F200000000000C000C000000000000000000021
:102F30000000000000000000E00718180420C2296B
:102F4000224A114409440944094409221113E20C9C
:102F5000024004201818E0070000000000000000F4
:102F600000000000000080038003C006C006C00609
:102F7000600C600C301830183018F83FF83F1C70A7
:102F80000C600C6006C006C00000000000000000DD
:102F9000000000000000FC03FC0F0C0C0C180C18C7
:102FA0000C180C0CFC07FC0F0C180C300C300C30FF
:102FB0000C300C18FC1FFC07000000000000000093
:102FC000000000000000C007F01F38381C300C70F3
:102FD0000660060006000600060006000600066001
:102FE0000C701C30F01FE007000000000000000023
:102FF000000000000000FE03FE0F060E0618061873
:103000000630063006300630063006300630061828
:103010000618060EFE0FFE03000000000000000070
:10302000000000000000FC3FFC3F0C000C000C0006
:103030000C000C00FC1FFC1F0C000C000C000C0012
:103040000C000C00FC3FFC3F0000000000000000F2
:10305000000000000000F83FF83F180018001800BA
:1030600018001800F81FF81F1800180018001800A2
:1030700018001800180018000000000000000000F0
:10308000000000000000E00FF83F3C780E6006E012
:1030900007C00300030003FE03FE03C007C006C011
:1030A0000EC03CF0F83FE00F000000000000000000
:1030B0000000000000000C300C300C300C300C30E4
:1030C0000C300C30FC3FFC3F0C300C300C300C3022
:1030D0000C300C300C300C30000000000000000000
:1030E000000000000000800180018001800180015B
:1030F00080018001800180018001800180018001C8
:1031000080018001800180010000000000000000BB
:103110000000000000000006000600060006000691
:103120000006000600060006000600060006180657
:1031300018063807F003E00100000000000000005E
:1031400000000000000006300618060C0606060304
:103150008601C60066007600DE008E0106030606C4
:10316000060C061806300660000000000000000093
:1031700000000000000018001800180018001800D7
:10318000180018001800180018001800180018007F
:1031900018001800F81FF81F0000000000000000D1
:1031A0000000000000000EE01EF01EF01EF036D8F9
:1031B00036D836D836D866CC66CC66CCC6C6C6C637
:1031C000C6C6C6C686C386C3000000000000000055
:1031D0000000000000000C301C303C303C306C30F3
:1031E0006C30CC30CC308C310C330C330C360C368C
:1031F0000C3C0C3C0C380C300000000000000000BF
:10320000000000000000E007F81F1C380E70066088
:1032100003C003C003C003C003C003C003C00660F3
:103220000E701C38F81FE0070000000000000000CE
:10323000000000000000FC0FFC1F0C380C300C30AC
:103240000C300C300C18FC1FFC070C000C000C00A0
:103250000C000C000C000C0000000000000000003E
:10326000000000000000E007F81F1C380E70066028
:1032700003E003C003C003C003C003C007E006634C
:103280000E3F1C3CF83FE0F700C0000000000000CB
:10329000000000000000FE0FFE1F0638063006305A
:1032A00006300638FE1FFE0706030606060C061843
:1032B000061806300630066000000000000000001E
:1032C000000000000000E003F80F1C0C0C180C18A4
:1032D0000C001C00F803E00F001E0038063006301A
:1032E0000E301C1CF80FE00700000000000000007A
:1032F000000000000000FE7FFE7F80018001800151
:1033000080018001800180018001800180018001B5
:1033100080018001800180010000000000000000A9
:103320000000000000000C300C300C300C300C3071
:103330000C300C300C300C300C300C300C300C30AD
:103340000C301818F81FE007000000000000000013
:1033500000000000000003600630063006300C1844
:103360000C180C18180C180C380E300630067007A4
:1033700060036003C001C001000000000000000005
:103380000000000000000360C361C361C3616633D5
:10339000663366336633663366336C1B6C1B6C1B9B
:1033A0002C1A3C1E380E380E0000000000000000F1
:1033B0000000000000000FE00C7018303018700C96
:1033C000600EC00780038003C003E006700C301C51
:1033D00018180C300E6007E000000000000000002C
:1033E00000000000000003C006600C301C383818D4
:1033F000300C6006E007C00380018001800180017D
:1034000080018001800180010000000000000000B8
:10341000000000000000FC7FFC7F0060003000180E
:10342000000C000600038001C0006000300018009E
:103430000C000600FE7FFE7F000000000000000080
:10344000000000000000E003E00360006000600096
:10345000600060006000600060006000600060006C
:103460006000600060006000600060006000E003D9
:10347000E0030000000030003000600060006000E9
:10348000C000C000C000C0018001800180010003B5
:10349000000300030006000600000000000000001A
:1034A000000000000000E003E0030003000300034D
:1034B00000030003000300030003000300030003F4
:1034C0000003000300030003000300030003E00304
:1034D000E003000000000000C001C00160036003C1
:1034E000600330063006180C180C000000000000C5
:1034F00000000000000000000000000000000000CC
:1035000000000000000000000000000000000000BB
:1035100000000000000000000000000000000000AB
:10352000000000000000FFFFFFFF0000000000009F
:103530000000000000000C000C000C000C000C004F
:103540000C0000000000000000000000000000006F
:10355000000000000000000000000000000000006B
:10356000000000000000000000000000000000005B
:10357000F003F8071C0C0C0C000FF00FF80C0C0CEF
:103580000C0C1C0FF80FF0180000000000000000E9
:1035900000000000000018001800180018001800B3
:1035A000D803F80F380C1818181818181818181805
:1035B0001818380CF80FD8030000000000000000B5
:1035C00000000000000000000000000000000000FB
:1035D000C003F007300E180C18001800180018006F
:1035E000180C300EF007C0030000000000000000BF
:1035F0000000000000000018001800180018001853
:10360000C01BF01F301C1818181818181818181894
:103610001818301CF01FC01B000000000000000044
:10362000000000000000000000000000000000009A
:10363000C003F00F300C1818F81FF81F18001800FE
:103640003818301CF00FC007000000000000000018
:10365000000000000000800FC00FC000C000C000CC
:10366000F007F007C000C000C000C000C000C000EC
:10367000C000C000C000C00000000000000000004A
:10368000000000000000000000000000000000003A
:10369000E00DF80F180E0C0C0C0C0C0C0C0C0C0C98
:1036A0000C0C180EF80FE00D000C0C0C1C06F807A3
:1036B000F0010000000018001800180018001800A1
:1036C000D807F80F381C18181818181818181818D0
:1036D000181818181818181800000000000000002A
:1036E000000000000000C000C0000000000000005A
:1036F000C000C000C000C000C000C000C000C000CA
:10370000C000C000C000C0000000000000000000B9
:10371000000000000000C000C00000000000000029
:10372000C000C000C000C000C000C000C000C00099
:10373000C000C000C000C000C000C000C000F80051
:103740007800000000000C000C000C000C000C00C5
:103750000C0C0C060C038C01CC006C00FC009C01D2
:103760008C030C030C060C0C000000000000000091
:10377000000000000000C000C000C000C000C00089
:10378000C000C000C000C000C000C000C000C00039
:10379000C000C000C000C000000000000000000029
:1037A0000000000000000000000000000000000019
:1037B0007C3CFF7EC7E383C183C183C183C183C1D6
:1037C00083C183C183C183C10000000000000000E9
:1037D00000000000000000000000000000000000E9
:1037E0009807F80F381C18181818181818181818EF
:1037F0001818181818181818000000000000000009
:1038000000000000000000000000000000000000B8
:10381000C003F00F300C18181818181818181818BA
:103820001818300CF00FC00300000000000000006A
:103830000000000000000000000000000000000088
:10384000D803F80F380C1818181818181818181862
:103850001818380CF80FD8031800180018001800B2
:103860001800000000000000000000000000000040
:10387000C01BF01F301C1818181818181818181822
:103880001818301CF01FC01B001800180018001872
:103890000018000000000000000000000000000010
:1038A000B007F0037000300030003000300030000E
:1038B0003000300030003000000000000000000048
:1038C00000000000000000000000000000000000F8
:1038D000E003F003380E180C3800F003C007000CAA
:1038E000180C380EF007E003000000000000000094
:1038F00000000000000000008000C000C000C00008
:10390000F007F007C000C000C000C000C000C00049
:10391000C000C000C00780070000000000000000D9
:103920000000000000000000000000000000000097
:103930001818181818181818181818181818181807
:103940001818381CF01FE0190000000000000000EB
:103950000000000000000000000000000000000067
:103960000C18180C180C180C3006300630066003C2
:1039700060036003C001C0010000000000000000FF
:103980000000000000000000000000000000000037
:10399000C141C141C36163636363636336363636D5
:1039A00036361C1C1C1C1C1C000000000000000003
:1039B0000000000000000000000000000000000007
:1039C0001C38381C300C6006600360036003600321
:1039D0006006300C381C1C3800000000000000009D
:1039E00000000000000000000000000000000000D7
:1039F0001830301830187018600C600CE00CC006DD
:103A0000C00680038003800380018001C001F000B4
:103A10007000000000000000000000000000000036
:103A2000FC1FFC1F000C000600038001C0006000AA
:103A300030001800FC1FFC1F000000000000000008
:103A400000000000000000038001C000C000C000B2
:103A5000C000C000C0006000600030006000400096
:103A6000C000C000C000C000C000C0008001000352
:103A700000000000000080018001800180018001C1
:103A8000800180018001800180018001800180012E
:103A9000800180018001800180018001800180011E
:103AA0008001000000006000C000C00180018001B2
:103AB0008001800180010003000300060003000173
:103AC000800180018001800180018001C0006000D0
:103AD00000000000000000000000000000000000E6
:103AE00000000000F010F81F080F000000000000A8
:103AF00000000000000000000000000000000000C6
:103B000000000000000000000000000000000000B5
:103B10000000000000000000000000000000002085
:103B200000200020002000200020002000000020B5
:103B30000000000000000050005000500000000095
:103B4000000000000000000000000000000000096C
:103B500000090012007F0012007F001200240024E0
:103B600000000000001000380054005000500038E1
:103B70000014005400540038001000000000803091
:103B800000490049004AC032200520092009C01020
:103B9000000000000000000C0012001200140018C9
:103BA000002500230023801D0000000000000040CD
:103BB0000040004000000000000000000000000085
:103BC000000000000000000800100010002000208D
:103BD0000020002000200020001000100000004005
:103BE0000020002000100010001000100010001035
:103BF0000020002000000020007000200050000085
:103C000000000000000000000000000000000000B4
:103C1000000000080008007F000800080000000005
:103C20000000000000000000000000000000000094
:103C30000000000000000020002000400000000004
:103C40000000000000000000007000000000000004
:103C50000000000000000000000000000000000064
:103C60000000000000000020000000000000001024
:103C70000010001000200020002000200040004024
:103C80000000000000000010002800440044004430
:103C90000044004400280010000000000000001054
:103CA0000030005000100010001000100010001034
:103CB000000000000000003000480044000400083C
:103CC000001000200040007C0000000000000030D8
:103CD00000480004000800100008004400480030BC
:103CE000000000000000000800180018002800284C
:103CF0000048007C00080008000000000000003CB4
:103D000000200040007000480004004400480030DB
:103D1000000000000000001800240040005000686F
:103D20000044004400280010000000000000007C57
:103D300000040008001000100010002000200020E7
:103D400000000000000000100028004400280010BF
:103D500000280044002800100000000000000010AF
:103D6000002800440044002C0014000400480030E7
:103D70000000000000000000000000200000000023
:103D80000000000000000020000000000000000013
:103D900000000020000000000000000000000020E3
:103DA0000020004000000000000400080030004037
:103DB00000300008000400000000000000000000C7
:103DC0000000007C00000000007C000000000000FB
:103DD0000000000000000000004000200018000467
:103DE0000018002000400000000000000000003823
:103DF00000640044000400080010001000000010DF
:103E0000000000000000800F4010A02EA0512051A3
:103E1000205120512053C04D2020401000000008A8
:103E20000014001400140022003E00220041004152
:103E3000000000000000003C002200220022003CA4
:103E4000002200220022003C000000000000000EC2
:103E50000011002100200020002000210011000E90
:103E6000000000000000003C002200210021002191
:103E7000002100210022003C000000000000003E64
:103E8000002000200020003E002000200020003EF6
:103E9000000000000000003E002000200020003C48
:103EA0000020002000200020000000000000000E84
:103EB0000011002100200027002100210011000E28
:103EC0000000000000000021002100210021003F2F
:103ED000002100210021002100000000000000203E
:103EE00000200020002000200020002000200020D2
:103EF000000000000000000800080008000800089A
:103F000000080048004800300000000000000022C7
:103F10000024002800280038002800240024002263
:103F200000000000000000200020002000200020F1
:103F3000002000200020003E000000000000802043
:103F4000803180318031802A802A802A802A802412
:103F5000000000000000002100310031002900298C
:103F60000025002300230021000000000000000CB9
:103F70000012002100210021002100210012000C6C
:103F8000000000000000003C002200220022003C53
:103F90000020002000200020000000000000000C95
:103FA0000012002100210021002100210016000D37
:103FB000000100000000003E002100210021003E21
:103FC0000024002200218020000000000000001CCE
:103FD000002200220020001C000200220022001CFF
:103FE000000000000000003E000800080008000873
:103FF0000008000800080008000000000000002180
:104000000021002100210021002100210012000CCC
:1040100000000000000000410041002200220022B8
:1040200000140014001400080000000000004044C8
:10403000404A402A802A802A802A802A802A001129
:1040400000000000000000410022001400140008DD
:104050000014001400220041000000000000004194
:1040600000220022001400080008000800080008D0
:10407000000000000000007E0002000400080010A4
:10408000001000200040007E000000000000003012
:104090000020002000200020002000200020002020
:1040A00000200020000000400040002000200020F0
:1040B0000020002000100010000000000000006040
:1040C00000200020002000200020002000200020F0
:1040D00000200020000000100028002800280044D4
:1040E00000000000000000000000000000000000D0
:1040F00000000000000000000000000000000000C0
:104100000000007E004000200000000000000000D1
:10411000000000000000000000000000000000009F
:104120000000003800440004003C00440044003C0F
:1041300000000000000000400040005800640044FF
:10414000004400440064005800000000000000002B
:1041500000000030004800400040004000480030AF
:10416000000000000000000400040034004C004483
:1041700000440044004C0034000000000000000037
:104180000000003800440044007C00400044003837
:104190000000000000000060004000E0004000401F
:1041A000004000400040004000000000000000000F
:1041B00000000034004C004400440044004C003433
:1041C0000004004400000040004000580064004427
:1041D000004400440044004400000000000000408F
:1041E000000000400040004000400040004000400F
:1041F00000000000000000400000004000400040BF
:1042000000400040004000400040004000000040EE
:104210000040004800500060005000500048004836
:10422000000000000000004000400040004000404E
:10423000004000400040004000000000000000007E
:1042400000000052006D0049004900490049004942
:10425000000000000000000000000058006400445E
:10426000004400440044004400000000000000003E
:10427000000000380044004400440044004400387A
:10428000000000000000000000000058006400442E
:10429000004400440064005800400040000000005A
:1042A00000000034004C004400440044004C003442
:1042B0000004000400000000000000500060004006
:1042C00000400040004000400000000000000000EE
:1042D0000000003000480040003000080048003076
:1042E0000000000000000040004000E000400040EE
:1042F000004000400040006000000000000000009E
:10430000000000440044004400440044004C0034D9
:1043100000000000000000000000004400440028ED
:104320000028002800280010000000000000000005
:104330000000004900490055005500550055002275
:1043400000000000000000000000004400280028D9
:1043500000100028002800440000000000000000B9
:10436000000000440044002800280028001000102D
:10437000001000100000000000000078000800108D
:104380000020002000400078000000000000001025
:1043900000200020002000200040002000200020FD
:1043A000002000200000002000200020002000202D
:1043B00000200020002000200020002000000040FD
:1043C00000200020002000200010002000200020FD
:1043D00000200020000000000000000000740058D1
:1043E00000000000000000000000000000000000CD
:1043F00000700050005000500050005000500070FD
:1044000000000000000000000000000000000000AC
:10441000000000000000000000000000000000009C
:10442000000010001000100010001000100000002C
:1044300010000000000000000000280028002800F4
:10444000000000000000000000000000000000006C
:104450000000140014003E00140028007C00280016
:104460002800000000000000100038005400500038
:104470003800140014005400380010000000000040
:1044800000004400A800A800500014001A002A00F0
:104490002400000000000000000020005000500038
:1044A0002000E80098009800600000000000000074
:1044B000000080008000800000000000000000007C
:1044C00000000000000000000000400080008000AC
:1044D00080008000800080008000800000000000DC
:1044E00000008000400040004000400040004000CC
:1044F000400040000000000000004000E0004000DC
:10450000A00000000000000000000000000000000B
:1045100000000000000020002000F8002000200023
:10452000000000000000000000000000000000008B
:1045300000000000000000004000400000000000FB
:10454000000000000000000000000000C0000000AB
:10455000000000000000000000000000000000005B
:10456000000000000000000040000000000000000B
:10457000000020002000200040004000800080005B
:10458000800000000000000000006000900090002B
:10459000900090009000900060000000000000007B
:1045A000000020006000A00020002000200020006B
:1045B00020000000000000000000600090001000DB
:1045C0001000200040008000F0000000000000000B
:1045D00000006000900010006000100010009000CB
:1045E00060000000000000000000100030005000DB
:1045F00050009000F80010001000000000000000C3
:104600000000700040008000E000100010009000EA
:1046100060000000000000000000600090008000CA
:10462000A000D0009000900060000000000000009A
:104630000000F0001000200020002000400040009A
:1046400040000000000000000000600090009000AA
:1046500060009000900090006000000000000000EA
:104660000000600090009000B0005000100090002A
:10467000600000000000000000000000000040009A
:1046800000000000000000004000000000000000EA
:1046900000000000000040000000000000000000DA
:1046A000400040000000000000000000000010007A
:1046B00060008000600010000000000000000000AA
:1046C0000000000000000000F0000000F00000000A
:1046D000000000000000000000000000000080005A
:1046E000600010006000800000000000000000007A
:1046F000000060009000100020004000400000001A
:10470000400000000000000000001C0022005B00D0
:10471000A500A500A500A5009E0041000000000026
:104720000000200050005000500050007000880031
:1047300088000000000000000000F00088008800F1
:10474000F000880088008800F000000000000000F1
:104750000000380044008400800080008400440091
:1047600038000000000000000000E0009000880019
:104770008800880088009000E00000000000000031
:104780000000F80080008000F800800080008000B9
:10479000F800000000000000000078004000400029
:1047A0007000400040004000400000000000000099
:1047B000000038004400840080009C008400440015
:1047C0003800000000000000000088008800880019
:1047D000F8008800880088008800000000000000C1
:1047E0000000800080008000800080008000800049
:1047F0008000000000000000000010001000100009
:104800001000100090009000600000000000000008
:10481000000088009000A000E000A0009000900040
:104820008800000000000000000080008000800080
:104830008000800080008000F00000000000000088
:1048400000008200C600C600AA00AA00AA00AA00B2
:10485000920000000000000000008400C400A400DA
:10486000A400940094008C0084000000000000006C
:104870000000300048008400840084008400480068
:1048800030000000000000000000F00088008800F8
:104890008800F00080008000800000000000000020
:1048A0000000300048008400840084008400580028
:1048B00034000400000000000000780044004400C0
:1048C0007800500048004400420000000000000052
:1048D00000007000880080007000080088008800D8
:1048E00070000000000000000000F8002000200020
:1048F0002000200020002000200000000000000018
:104900000000840084008400840084008400480047
:104910003000000000000000000088008800500007
:104920005000500050005000200000000000000027
:1049300000009200AA00AA00AA00AA00AA00AA00E9
:10494000440000000000000000008400480048000F
:1049500030003000480048008400000000000000E3
:10496000000088005000500020002000200020009F
:1049700020000000000000000000F8000800100007
:104980002000200040008000F8000000000000002F
:104990000000C00080008000800080008000800057
:1049A00080008000000000000000800080004000C7
:1049B00040004000400020002000000000000000F7
:1049C0000000C000400040004000400040004000A7
:1049D000400040000000000000004000A000A000D7
:1049E000A000000000000000000000000000000027
:1049F00000000000000000000000000000000000B7
:104A00000000F800000000000000800040000000EE
:104A10000000000000000000000000000000000096
:104A2000000000000000E000100070009000900006
:104A30007000000000000000000080008000A00066
:104A4000D00090009000D000A00000000000000006
:104A500000000000000060009000800080009000D6
:104A60006000000000000000000010001000500076
:104A7000B00090009000B000500000000000000066
:104A800000000000000060009000F0008000900036
:104A900060000000000000000000C0008000C000B6
:104AA0008000800080008000800000000000000086
:104AB0000000000000005000B00090009000B00026
:104AC0005000100000000000000080008000A000E6
:104AD000D0009000900090009000000000000000C6
:104AE00000008000000080008000800080008000C6
:104AF0008000000000000000000080000000800036
:104B000080008000800080008000800000000000A5
:104B10000000800080009000A000C000A000900075
:104B20009000000000000000000080008000800075
:104B300080008000800080008000000000000000F5
:104B4000000000000000A600DA009200920092002F
:104B50009200000000000000000000000000A00023
:104B6000D000900090009000900000000000000035
:104B70000000000000006000900090009000900095
:104B80006000000000000000000000000000A00025
:104B9000D00090009000D000A00080000000000035
:104BA0000000000000005000B00090009000B00035
:104BB0005000100000000000000000000000A000F5
:104BC000C000800080008000800000000000000025
:104BD000000000000000E000900040002000900075
:104BE0006000000000000000000080008000C000A5
:104BF0008000800080008000C000000000000000F5
:104C00000000000000009000900090009000B000B4
:104C100050000000000000000000000000008800BC
:104C200088005000500050002000000000000000EC
:104C30000000000000009200AA00AA00AA00AA003A
:104C40004400000000000000000000000000880098
:104C500050002000200050008800000000000000EC
:104C600000000000000088005000500050002000AC
:104C70002000200000000000000000000000F00004
:104C80001000200040008000F00000000000000044
:104C90000000C000800080008000000080008000D4
:104CA0008000800000000000000080008000800084
:104CB00080008000800080008000800000000000F4
:104CC0000000C000400040004000200040004000C4
:104CD0004000400000000000000000000000000054
:104CE000E800B0000000000000000000000000002C
:104CF00000000000E000A000A000A000A000A000B4
:104D0000E0000000000000000000000000000000C3
:104D10000000000040004000400040004000400013
:104D200000004000A000A000A00000000000000063
:104D300000000000000024002400FE004800FC00E9
:104D40004800480038005400500038001400140097
:104D5000540038004400A800A800500014001A00B5
:104D60002A002400100028002800100074004C00C5
:104D70004C00300010001000100000000000000087
:104D800000000000080010001000100010001000CB
:104D900010000800100008000800080008000800C3
:104DA0000800100000000000240018003C0018005B
:104DB0002400000000000000100010007C00100023
:104DC00010000000000000000000000000000800CB
:104DD0000800100000000000000000003C0000007F
:104DE00000000000000000000000000000000000C3
:104DF000180018000800080008001000100020002B
:104E00002000200018002400240024002400240096
:104E100024001800080018002800080008000800F6
:104E200008000800380044000000040008001000DA
:104E300020007C0018002400040018000400040076
:104E40002400180004000C001400240044007E001C
:104E5000040004003C00200020003800040004008E
:104E6000240018001800240020003800240024002A
:104E7000240018003C00040008000800080010008E
:104E80001000100018002400240018002400240042
:104E90002400180018002400240024001C00040032
:104EA00024001800000000001000000000001000A6
:104EB00000000000000000000800000000000800E2
:104EC000100000000000000004001800200018007E
:104ED000040000000000000000003C0000003C0056
:104EE000000000000000000020001800040018006E
:104EF000200000001800240004000800100010002A
:104F0000000010003C0042009900A500A5009D0093
:104F10004200380038004400440044007C00440053
:104F200044004400780044004400780044004400F9
:104F3000440078001C002200420040004000420073
:104F400022001C007000480044004400440044005B
:104F5000480070007C00400040007C0040004000A1
:104F600040007C003C002000200038002000200091
:104F7000200020001C002200420040004E004200A1
:104F800022001C004400440044007C004400440013
:104F90004400440010001000100010001000100029
:104FA00010001000040004000400040004002400A9
:104FB00024001800440048005000700050004800D1
:104FC0004800440020002000200020002000200095
:104FD00020003C008200C600C600AA00AA00AA0069
:104FE000AA00920042006200520052004A004A00A9
:104FF00046004200180024004200420042004200E5
:105000002400180078004400440044007800400068
:1050100040004000180024004200420042004200CC
:105020002C001A007800440044007800500048002A
:1050300044004200380044004000380004004400AE
:10504000440038007C001000100010001000100018
:1050500010001000420042004200420042004200A4
:1050600024001800440044002800280028002800DC
:10507000280010009200AA00AA00AA00AA00AA0014
:10508000AA00440042002400240018001800240054
:1050900024004200440028002800100010001000E6
:1050A000100010007C000400080010001000200018
:1050B00040007C001C0010001000100010001000C8
:1050C00010001C0010001000080008000800080074
:1050D000040004001C000400040004000400040098
:1050E00004001C0010002800440000000000000024
:1050F00000000000000000000000000000000000B0
:10510000000000002000100010000000000000005F
:105110000000000000000000180004001C00240033
:1051200024001C002000200028003400240024005B
:105130003400280000000000180024002000200097
:10514000240018000400040014002C002400240093
:105150002C00140000000000180024003C00200077
:1051600024001800000018001000100018001000A3
:105170001000100000001800240024001800040093
:1051800024001800200020002800340024002400FF
:105190002400240010000000100010001000100077
:1051A00010001000080000000800080008000800B7
:1051B00028001000200020002400280030002800D3
:1051C0002400240010001000100010001000100037
:1051D0001000100000000000A600DA00920092000B
:1051E00092009200000000002800340024002400F7
:1051F00024002400000000001800240024002400E3
:10520000240018000000280034002400380020008A
:1052100020002000000014002C0024001C000400CA
:1052200004000400000000002C00300020002000DA
:1052300020002000000000001800240010000800DA
:1052400024001800000010003800100010001000AA
:105250001000180000000000240024002400240096
:105260002C00140000000000440044002800280026
:1052700028001000000000009200AA00AA00AA0066
:10528000AA004400000000004400280010001000A4
:10529000280044000000280028002800100010000A
:1052A00010001000000000003C0004000800100086
:1052B00020003C000000080010001000200010003A
:1052C0001000080010001000100010001000100066
:1052D0001000100000001000080008000400080082
:1052E00008001000000000000000600092000C00A8
:1052F00000000000FF00FF00FF00FF00FF00FF00B4
:10530000FF00FF00245300080000002040000000C0
:105310008C1D00086453000840000020C8040000F1
:105320009C1D0008000000000000000000000000BC
:1053300000000000000000003429000810001800E0
:10534000043B00080C000C000444000808000C009A
:10535000044D000808000800000000000000FFFFE6
:045360000000000049
:040000050800018965
:00000001FF
